:100000000C9461000C947E000C947E000C947E0095
:100010000C947E000C947E000C947E000C947E0068
:100020000C947E000C947E000C947E000C947E0058
:100030000C947E000C947E000C947E000C947E0048
:100040000C94FE000C947E000C947E000C947E00B8
:100050000C947E000C947E000C947E000C947E0028
:100060000C947E000C947E00000000002500280007
:100070002B0000000000240027002A0000000000E0
:1000800023002600290004040404040404040202DA
:100090000202020203030303030301020408102007
:1000A0004080010204081020010204081020000012
:1000B0000008000201000003040700000000000027
:1000C000000011241FBECFEFD8E0DEBFCDBF11E08E
:1000D000A0E0B1E0E4E2F6E002C005900D92A435A4
:1000E000B107D9F721E0A4E5B1E001C01D92AE351A
:1000F000B207E1F70E9448010C9410030C94000031
:10010000833081F028F4813099F08230A1F0089595
:100110008730A9F08830B9F08430D1F48091800024
:100120008F7D03C0809180008F7780938000089539
:1001300084B58F7702C084B58F7D84BD089580918A
:10014000B0008F7703C08091B0008F7D8093B000A6
:1001500008951F93CF93DF93282F30E0F901E255E4
:10016000FF4F8491F901E656FF4FD491F901EA5708
:10017000FF4FC491CC23C9F0162F81110E9480003B
:10018000EC2FF0E0EE0FFF1FE859FF4FA591B4915F
:100190008FB7F894111105C09C91ED2FE095E923DC
:1001A00002C0EC91ED2BEC938FBFDF91CF911F91AB
:1001B00008953FB7F8948091590190915A01A09108
:1001C0005B01B0915C0126B5A89B05C02F3F19F0DB
:1001D0000196A11DB11D3FBFBA2FA92F982F8827C7
:1001E000820F911DA11DB11DBC01CD0142E0660F22
:1001F000771F881F991F4A95D1F708951F920F9274
:100200000FB60F9211242F933F938F939F93AF9329
:10021000BF938091550190915601A0915701B091E3
:1002200058013091540123E0230F2D3720F401961B
:10023000A11DB11D05C026E8230F0296A11DB11D09
:10024000209354018093550190935601A093570138
:10025000B09358018091590190915A01A0915B018E
:10026000B0915C010196A11DB11D8093590190933D
:100270005A01A0935B01B0935C01BF91AF919F9134
:100280008F913F912F910F900FBE0F901F90189557
:10029000CF93DF931F92CDB7DEB7789484B5826099
:1002A00084BD84B5816084BD85B5826085BD85B51A
:1002B000816085BD80916E00816080936E00109298
:1002C0008100809181008260809381008091810013
:1002D00081608093810080918000816080938000A4
:1002E0008091B10084608093B1008091B000816002
:1002F0008093B00080917A00846080937A0080912E
:100300007A00826080937A0080917A008160809385
:100310007A0080917A00806880937A001092C10000
:1003200023E030E0F901E656FF4F4491F901EA5726
:10033000FF4F8491882399F090E0880F991FFC016A
:10034000EE58FF4FA591B491FC01E859FF4F8591FC
:1003500094918FB7F894EC91E42BEC938FBF2F5FBF
:100360003F4F2A303105F1F6ECE9F0E0249108E83E
:1003700010E0F80184918823C9F090E0880F991F5C
:10038000FC01EE58FF4FA591B49188599F4FFC0195
:10039000459154919FB7F8943C91822F8095832387
:1003A0008C93FA018081282B20839FBF10925D01DE
:1003B00044E0E42E41E0F42E92E0F70161917F01E8
:1003C000892F99830E94A90099819F5F9A30A9F78C
:1003D00090EBE92E90E0F92E28E0822E912CA12CB2
:1003E000B12C30E0C32E30E0D32E33243394F70108
:1003F0008491ECE9F0E06490F80174907720A1F02A
:1004000081110E948000E72DF0E0EE0FFF1FE458FD
:10041000FF4FA591B4918C91682231F0C114D104A1
:1004200031F30E940000E3CF0E949F02A5019401D6
:100430000E94AD02611132C030925D0180915D0178
:10044000873010F030925D01612C712C80915D013C
:10045000F30128E0829FE00DF11D1124EC5FFE4FB7
:10046000608182E0860D0E94A9008FEF681A780AE9
:1004700098E06916710451F70E94D9002B013C01E4
:100480000E94D900DC01CB0184199509A609B7099E
:10049000883E9340A105B10508F6F2CF60935D0157
:1004A000CDCF8F929F92AF92BF92CF92DF92EF9279
:1004B000FF92CF93DF93EC01688179818A819B81E0
:1004C000611571058105910521F464E279ED8BE5F3
:1004D00097E02DE133EF41E050E00E94AD02490189
:1004E0005A019B01AC01A7EAB1E40E94CC026B0166
:1004F0007C01ACEEB4EFA50194010E94DA02DC01AC
:10050000CB018C0D9D1DAE1DBF1DB7FF03C0019714
:10051000A109B04888839983AA83BB83BC01CD011C
:100520009F77DF91CF91FF90EF90DF90CF90BF90BA
:10053000AF909F908F9008950E945102089580E09F
:1005400091E00E94510208956093000170930101AF
:1005500080930201909303010895052E97FB1EF4EA
:1005600000940E94C40257FD07D00E94DF0207FCDE
:1005700003D04EF40C94C4025095409530952195CB
:100580003F4F4F4F5F4F08959095809570956195BF
:100590007F4F8F4F9F4F08950E940103A59F900D9D
:1005A000B49F900DA49F800D911D11240895B7FF55
:1005B0000C94CC020E94CC02821B930B0895A1E202
:1005C0001A2EAA1BBB1BFD010DC0AA1FBB1FEE1FCD
:1005D000FF1FA217B307E407F50720F0A21BB30B18
:1005E000E40BF50B661F771F881F991F1A9469F794
:1005F00060957095809590959B01AC01BD01CF01F0
:100600000895A29FB001B39FC001A39F700D811DEB
:100610001124911DB29F700D811D1124911D08950B
:04062000F894FFCF7C
:1006240001000000000000000000000000000101C3
:1006340000000000000101000101000100010101AE
:10064400010000010000010100000101000100019E
:10065400010001010001000101010101000101018A
:10066400000001000001010101010101000101017B
:04067400010001017F
:00000001FF
