:100000000C9461000C947E000C947E000C947E0095
:100010000C947E000C947E000C947E000C947E0068
:100020000C947E000C947E000C947E000C947E0058
:100030000C947E000C947E000C947E000C947E0048
:100040000C949D010C947E000C947E000C947E0018
:100050000C947E000C947E000C947E000C947E0028
:100060000C947E000C947E00000000002400270009
:100070002A0000000000250028002B0000000000DE
:1000800023002600290004040404040404040202DA
:100090000202020203030303030301020408102007
:1000A0004080010204081020010204081020000012
:1000B0000008000201000003040700000000000027
:1000C000000011241FBECFEFD8E0DEBFCDBF11E08E
:1000D000A0E0B1E0E2E7F7E002C005900D92A039A0
:1000E000B107D9F721E0A0E9B1E001C01D92AA391A
:1000F000B207E1F70E94E7010C94B7030C940000EB
:10010000833081F028F4813099F08230A1F0089595
:100110008730A9F08830B9F08430D1F48091800024
:100120008F7D03C0809180008F7780938000089539
:1001300084B58F7702C084B58F7D84BD089580918A
:10014000B0008F7703C08091B0008F7D8093B000A6
:100150000895CF93DF93282F30E0F901E255FF4F48
:100160008491F901E656FF4FD491F901EA57FF4F08
:10017000C491CC2391F081110E948000EC2FF0E01B
:10018000EE0FFF1FE458FF4FA591B491EC91ED23C2
:1001900081E090E021F480E002C080E090E0DF9117
:1001A000CF9108951F93CF93DF93282F30E0F9016B
:1001B000E255FF4F8491F901E656FF4FD491F901C2
:1001C000EA57FF4FC491CC23C9F0162F81110E942A
:1001D0008000EC2FF0E0EE0FFF1FEE58FF4FA591CF
:1001E000B4918FB7F894111105C09C91ED2FE09553
:1001F000E92302C0EC91ED2BEC938FBFDF91CF91FF
:100200001F910895CF93DF9390E0FC01E656FF4FD6
:100210002491FC01EA57FF4F8491882361F190E01B
:10022000880F991FFC01E859FF4FC591D491FC013B
:10023000EE58FF4FA591B491611109C09FB7F89492
:100240008881209582238883EC912E230BC0623015
:1002500061F49FB7F8943881822F80958323888337
:10026000EC912E2B2C939FBF06C08FB7F894E8819A
:100270002E2B28838FBFDF91CF9108953FB7F8943D
:100280008091950190919601A0919701B09198016C
:1002900026B5A89B05C02F3F19F00196A11DB11DE1
:1002A0003FBFBA2FA92F982F8827820F911DA11D1C
:1002B000B11DBC01CD0142E0660F771F881F991F59
:1002C0004A95D1F708958F929F92AF92BF92CF92A5
:1002D000DF92EF92FF926B017C010E943E014B0185
:1002E0005C01C114D104E104F104F1F00E943E016B
:1002F000DC01CB0188199909AA09BB09883E934002
:10030000A105B10570F321E0C21AD108E108F10896
:1003100088EE880E83E0981EA11CB11CC114D10484
:10032000E104F10419F7DDCFFF90EF90DF90CF905B
:10033000BF90AF909F908F9008951F920F920FB62D
:100340000F9211242F933F938F939F93AF93BF935B
:100350008091910190919201A0919301B0919401AB
:100360003091900123E0230F2D3720F40196A11D39
:10037000B11D05C026E8230F0296A11DB11D2093D3
:1003800090018093910190939201A0939301B09377
:1003900094018091950190919601A0919701B0915F
:1003A00098010196A11DB11D80939501909396012E
:1003B000A0939701B0939801BF91AF919F918F91B6
:1003C0003F912F910F900FBE0F901F90189578942A
:1003D00084B5826084BD84B5816084BD85B582604A
:1003E00085BD85B5816085BD80916E0081608093FB
:1003F0006E00109281008091810082608093810064
:100400008091810081608093810080918000816073
:10041000809380008091B10084608093B1008091CE
:10042000B00081608093B00080917A0084608093F6
:100430007A0080917A00826080937A0080917A00BD
:10044000816080937A0080917A00806880937A003E
:100450001092C100C3E061E08C2F0E940201CF5FC7
:10046000CA30C9F761E08C2F0E940201CF5FCE3005
:10047000C9F762E082E00E94020162E08EE00E9421
:10048000020162E08FE00E9402011092990104E0F3
:1004900011E0C2E0F80161918F018C2F0E94D2001F
:1004A000CF5FCA30B9F788E0C82ED12CE12CF12CEF
:1004B00096E0A92E00E010E0BB24B39482E00E94F5
:1004C000A900892B71F50E944603A70196010E949D
:1004D0005403662319F06093990102C0B092990108
:1004E00080919901873010F0B0929901C0E0D0E07E
:1004F00080919901FE0198E0899FE00DF11D112482
:10050000EC5FFE4F60818C2F8E5F0E94D20021969F
:10051000C830D10569F761E070E080E090E00E94AA
:1005200063018EE00E94A900892B31F08FE00E94C8
:10053000A900892BB9F52BC066E970E080E090E056
:100540000E9463018EE00E94A900019779F78091D3
:1005500099018F5F8A3019F08093990102C010923F
:100560009901C0E0D0E080919901FE0198E0899F57
:10057000E00DF11D1124EC5FFE4F60818C2F8E5F2A
:100580000E94D2002196C830D10569F7CFCF66E925
:1005900070E080E090E00E9463018FE00E94A9007B
:1005A000019739F00115110509F488CF0E94000068
:1005B00085CF809199018F5F8A3019F080939901DE
:1005C00002C010929901C8E0D0E080919901FE012B
:1005D000A89EE00DF11D1124EC5AFE4F60818C2F76
:1005E0008E5F0E94D2002196CD30D10571F7DACF0F
:1005F0008F929F92AF92BF92CF92DF92EF92FF9233
:10060000CF93DF93EC01688179818A819B816115A9
:1006100071058105910521F464E279ED8BE597E0A0
:100620002DE133EF41E050E00E94540349015A01AB
:100630009B01AC01A7EAB1E40E9473036B017C014A
:10064000ACEEB4EFA50194010E948103DC01CB0163
:100650008C0D9D1DAE1DBF1DB7FF03C00197A109E5
:10066000B04888839983AA83BB83BC01CD019F775F
:10067000DF91CF91FF90EF90DF90CF90BF90AF9040
:100680009F908F9008950E94F802089580E091E075
:100690000E94F80208956093000170930101809315
:1006A0000201909303010895052E97FB1EF4009418
:1006B0000E946B0357FD07D00E94860307FC03D0FE
:1006C0004EF40C946B0350954095309521953F4F17
:1006D0004F4F5F4F089590958095709561957F4F2E
:1006E0008F4F9F4F08950E94A803A59F900DB49F20
:1006F000900DA49F800D911D11240895B7FF0C94B7
:1007000073030E947303821B930B0895A1E21A2EB8
:10071000AA1BBB1BFD010DC0AA1FBB1FEE1FFF1FA5
:10072000A217B307E407F50720F0A21BB30BE40BF5
:10073000F50B661F771F881F991F1A9469F760953C
:100740007095809590959B01AC01BD01CF010895F6
:10075000A29FB001B39FC001A39F700D811D112402
:10076000911DB29F700D811D1124911D0895F89463
:02077000FFCFB9
:100772000100000000000000000000000000010174
:10078200000000000001010001010001000101015F
:10079200010000010000010100000101000100014F
:1007A200010001010001000101010101000101013B
:1007B200000001000001010101010101000101012C
:1007C2000100010100000000000000000000000024
:1007D2000000010000000000000100000000010113
:1007E2000000000000000100000001000100000004
:1007F20000010100000001010100000000000001F1
:00000001FF
