:100000000C9461000C9473000C9473000C947300B6
:100010000C9473000C9473000C9473000C94730094
:100020000C9473000C9473000C9473000C94730084
:100030000C9473000C9473000C9473000C94730074
:100040000C9453010C9473000C9473000C94730083
:100050000C9473000C9473000C9473000C94730054
:100060000C9473000C94730000000000240027001F
:100070002A0000000000250028002B0000000000DE
:1000800023002600290004040404040404040202DA
:100090000202020203030303030301020408102007
:1000A0004080010204081020010204081020000012
:1000B0000008000201000003040700000000000027
:1000C000000011241FBECFEFD8E0DEBFCDBF21E07E
:1000D000A0E0B1E001C01D92AA30B207E1F70E9492
:1000E0009D010C943F030C940000833081F028F4B0
:1000F000813099F08230A1F008958730A9F08830DE
:10010000B9F08430D1F4809180008F7D03C080915C
:1001100080008F7780938000089584B58F7702C028
:1001200084B58F7D84BD08958091B0008F7703C022
:100130008091B0008F7D8093B0000895CF93DF93BE
:10014000E0EBF0E08491ECE9F0E0D491E8E8F0E055
:10015000C491CC2391F081110E947500EC2FF0E046
:10016000EE0FFF1FE458FF4FA591B491EC91ED23E2
:1001700081E090E021F480E002C080E090E0DF9137
:10018000CF9108951F93CF93DF93282F30E0F9018B
:10019000E255FF4F8491F901E656FF4FD491F901E2
:1001A000EA57FF4FC491CC23C9F0162F81110E944A
:1001B0007500EC2FF0E0EE0FFF1FEE58FF4FA591FA
:1001C000B4918FB7F894111105C09C91ED2FE09573
:1001D000E92302C0EC91ED2BEC938FBFDF91CF911F
:1001E0001F910895CF93DF9390E0FC01E656FF4FF7
:1001F0002491FC01EA57FF4F8491882361F190E03C
:10020000880F991FFC01E859FF4FC591D491FC015B
:10021000EE58FF4FA591B491611109C09FB7F894B2
:100220008881209582238883EC912E230BC0623035
:1002300061F49FB7F8943881822F80958323888357
:10024000EC912E2B2C939FBF06C08FB7F894E881BA
:100250002E2B28838FBFDF91CF9108953FB7F8945D
:100260008091050190910601A0910701B0910801CC
:1002700026B5A89B05C02F3F19F00196A11DB11D01
:100280003FBFBA2FA92F982F8827820F911DA11D3C
:10029000B11DBC01CD0142E0660F771F881F991F79
:1002A0004A95D1F708951F920F920FB60F9211241D
:1002B0002F933F938F939F93AF93BF9380910101AF
:1002C00090910201A0910301B091040130910001CD
:1002D00023E0230F2D3720F40196A11DB11D05C089
:1002E00026E8230F0296A11DB11D209300018093E3
:1002F000010190930201A0930301B0930401809146
:10030000050190910601A0910701B09108010196A5
:10031000A11DB11D8093050190930601A0930701D3
:10032000B0930801BF91AF919F918F913F912F9111
:100330000F900FBE0F901F901895789484B582602F
:1003400084BD84B5816084BD85B5826085BD85B579
:10035000816085BD80916E00816080936E001092F7
:100360008100809181008260809381008091810072
:100370008160809381008091800081608093800003
:100380008091B10084608093B1008091B000816061
:100390008093B00080917A00846080937A0080918D
:1003A0007A00826080937A0080917A0081608093E5
:1003B0007A0080917A00806880937A001092C10060
:1003C00061E083E00E94F20061E084E00E94F200BC
:1003D00061E085E00E94F20061E086E00E94F200A8
:1003E00061E087E00E94F20061E088E00E94F20094
:1003F00061E089E00E94F20061E08AE00E94F20080
:1004000061E083E00E94C20061E084E00E94C200DB
:1004100061E085E00E94C20061E086E00E94C200C7
:1004200061E087E00E94C20061E088E00E94C200B3
:1004300060E089E00E94C20060E08AE00E94C200A1
:1004400062E082E00E94F20061E082E00E94C2006D
:10045000C0E0D0E00E949E00892B79F50E942E0119
:100460004B015C0184E6C82ED12CE12CF12C0E94BA
:100470002E01DC01CB0188199909AA09BB09883E24
:100480009340A105B10558F021E0C21AD108E10856
:10049000F10888EE880E83E0981EA11CB11CC114DF
:1004A000D104E104F10419F70E949E00019729F498
:1004B000809109018F5F809309018091090181304A
:1004C000B1F460E083E00E94C20061E084E00E9439
:1004D000C20061E085E00E94C20060E086E00E9408
:1004E000C20060E087E00E94C20060E062C082302B
:1004F00091F461E083E00E94C20061E084E00E9428
:10050000C20060E085E00E94C20061E086E00E94D7
:10051000C20061E012C08330A9F461E00E94C20011
:1005200061E084E00E94C20061E085E00E94C200B8
:1005300061E086E00E94C20060E087E00E94C200A5
:1005400060E067C0843071F460E083E00E94C20024
:1005500061E084E00E94C20061E085E00E94C20088
:1005600060E04FC0853031F461E083E00E94C2005A
:1005700060E03FC0863031F461E083E00E94C20059
:1005800060E023C08730D1F461E083E00E94C200C4
:1005900061E084E00E94C20061E085E00E94C20048
:1005A00060E086E00E94C20060E087E00E94C20036
:1005B00061E088E00E94C20060E02FC0883091F4C2
:1005C00061E083E00E94C20061E084E00E94C2001A
:1005D00061E085E00E94C20061E086E00E94C20006
:1005E00061E013C0893009F561E083E00E94C20038
:1005F00061E084E00E94C20061E085E00E94C200E8
:1006000061E086E00E94C20060E087E00E94C200D4
:1006100061E088E00E94C20061E089E00E94C200BF
:1006200060E08AE00E94C20024C08A3011F561E0D7
:1006300083E00E94C20061E084E00E94C20061E0A9
:1006400085E00E94C20061E086E00E94C20061E095
:1006500087E00E94C20061E088E00E94C20060E082
:1006600089E00E94C20060E08AE00E94C20010920D
:100670000901209709F4EECE0E940000EBCEF89419
:02068000FFCFAA
:00000001FF
