:100000000C9461000C947E000C947E000C947E0095
:100010000C947E000C947E000C947E000C947E0068
:100020000C947E000C947E000C947E000C947E0058
:100030000C947E000C947E000C947E000C947E0048
:100040000C94F2000C947E000C947E000C947E00C4
:100050000C947E000C947E000C947E000C947E0028
:100060000C947E000C947E00000000002400270009
:100070002A0000000000250028002B0000000000DE
:1000800023002600290004040404040404040202DA
:100090000202020203030303030301020408102007
:1000A0004080010204081020010204081020000012
:1000B0000008000201000003040700000000000027
:1000C000000011241FBECFEFD8E0DEBFCDBF11E08E
:1000D000A0E0B1E0E2E8F4E002C005900D92A233A6
:1000E000B107D9F721E0A2E3B1E001C01D92AC3322
:1000F000B207E1F70E943C010C943F020C9400000F
:10010000833081F028F4813099F08230A1F0089595
:100110008730A9F08830B9F08430D1F48091800024
:100120008F7D03C0809180008F7780938000089539
:1001300084B58F7702C084B58F7D84BD089580918A
:10014000B0008F7703C08091B0008F7D8093B000A6
:100150000895CF93DF93E0EBF0E08491ECE9F0E0D9
:10016000D491E8E8F0E0C491CC2391F081110E9491
:100170008000EC2FF0E0EE0FFF1FE458FF4FA59139
:10018000B491EC91ED2381E090E021F480E002C095
:1001900080E090E0DF91CF9108953FB7F89480918F
:1001A000370190913801A0913901B0913A0126B5FB
:1001B000A89B05C02F3F19F00196A11DB11D3FBF9F
:1001C000BA2FA92F982F8827820F911DA11DB11D2D
:1001D000BC01CD0142E0660F771F881F991F4A9529
:1001E000D1F708951F920F920FB60F9211242F93FB
:1001F0003F938F939F93AF93BF93809133019091DF
:100200003401A0913501B09136013091320123E0E3
:10021000230F2D3720F40196A11DB11D05C026E83E
:10022000230F0296A11DB11D20933201809333014B
:1002300090933401A0933501B0933601809137013A
:1002400090913801A0913901B0913A010196A11D18
:10025000B11D8093370190933801A0933901B09379
:100260003A01BF91AF919F918F913F912F910F9044
:100270000FBE0F901F901895789484B5826084BD4E
:1002800084B5816084BD85B5826085BD85B581609A
:1002900085BD80916E00816080936E001092810018
:1002A00080918100826080938100809181008160D3
:1002B0008093810080918000816080938000809194
:1002C000B10084608093B1008091B0008160809320
:1002D000B00080917A00846080937A0080917A00E7
:1002E000826080937A0080917A00816080937A00A6
:1002F00080917A00806880937A001092C10023E098
:1003000030E0F901E656FF4F4491F901EA57FF4FFB
:100310008491882399F090E0880F991FFC01E85997
:10032000FF4FA591B491FC01EE58FF4F8591949138
:100330008FB7F894EC91E42BEC938FBF2F5F3F4F76
:1003400027303105F1F6ECE9F0E02491E8E8F0E03F
:1003500084918823C1F090E0880F991FFC01E8592F
:10036000FF4FC591D491FC01EE58FF4FA591B49178
:100370009FB7F8943881822F809583238883EC91EE
:10038000E22BEC939FBF05E0C0E0D0E00E94A90003
:10039000892B29F02097D1F30E940000F7CF0E940B
:1003A000CD004B015C0196E9C92ED12CE12CF12C3A
:1003B0000E94CD00DC01CB0188199909AA09BB096B
:1003C000883E9340A105B10558F021E0C21AD1083A
:1003D000E108F10888EE880E83E0981EA11CB11C8C
:1003E000C114D104E104F10419F70E94A900019796
:1003F00089F680913B018F5F8A3019F080933B0131
:1004000002C010923B01E12CF12C80913B01F701DD
:10041000089FE00DF11D1124E050FF4FC0809701AF
:100420002E5F3F4FF901E255FF4F8491F901E656E7
:10043000FF4FD490F901EA57FF4F14911123B1F007
:1004400081110E948000E12FF0E0EE0FFF1FEE58B7
:10045000FF4FA591B4918FB7F894EC91C11003C0F0
:10046000D094DE2201C0DE2ADC928FBF8FEFE81A23
:10047000F80A25E0E216F10409F0C7CF8BCFF89413
:02048000FFCFAC
:100482000000000000000100000000000100000068
:100492000101000000000001000001000100000055
:1004A2000101000001010100000000000100010043
:0204B200000147
:00000001FF
